:020000040800F2
:100000002027002085020008432C0008F327000861
:10001000412C0008B9080008453300080000000022
:10002000000000000000000000000000A501000822
:10003000F708000800000000010200085F2F000818
:100040009F0200089F0200089F0200089F0200080C
:100050009F0200089F0200089F0200089F020008FC
:100060009F0200089F0200089F020008BD080008C8
:100070009F0200089F0200089F0200089F020008DC
:100080009F0200089F0200089F0200089F020008CC
:100090009F0200089F0200089F0200089F020008BC
:1000A0009F0200089F0200089F0200089F020008AC
:1000B0005130000800000000000000009F0200080E
:1000C0009F0200089F0200089F0200089F0200088C
:1000D0009F0200089F0200089F0200089F0200087C
:1000E0009F0200089F0200080000000000000000BE
:1000F0000000000000000000000000000000000000
:10010000000000009F020008000000009F0200089D
:1001100000000000000000009F0200086D31000890
:100120009F0200089F0200089F0200089F0200082B
:100130009F02000800000000000000000000000016
:100140009F0200089F0200089F02000800000000B4
:100150009F0200089F0200089F0200089F020008FB
:100160009F0200089F0200089F0200080000000094
:100170009F0200089F02000800000000000000002D
:100180009F0200089F0200089F020008DFF810D0BD
:1001900000F006FB004800475D360008AFF3008022
:1001A000202700202C4B1968086800F05AB880F30B
:1001B0000988BFF36F8F4FF0000080F311887047FC
:1001C0000000000008480068006880F308884FF0CD
:1001D000000080F3148862B661B6BFF34F8FBFF39F
:1001E0006F8F00DF00BF00BF08ED00E0DFF80C00FC
:1001F000016841F470010160704700BF88ED00E0C4
:10020000EFF30980BFF36F8F134B1A681EF0100FC6
:1002100008BF20ED108A20E9F04F106009B44FF0BC
:10022000500080F31188BFF34F8FBFF36F8F04F03E
:1002300003FD4FF0000080F3118809BC19680868BD
:1002400000F014B81EF0100F08BF00F014B880F3CF
:100250000988BFF36F8F704784000020EFF305809B
:10026000704730C8B0E8C04FFFF7A1BF30C8B0E852
:10027000C04FFFF7E7BFB0EC088AB0EC08CAFFF741
:10028000E6BF00000648804706480047FEE7FEE755
:10029000FEE7FEE7FEE7FEE7FEE7FEE7FEE7FEE736
:1002A0000D3000088D01000840EA01039B0703D0D0
:1002B00009E008C9121F08C0042AFAD203E011F8A5
:1002C000013B00F8013B521EF9D27047D2B201E067
:1002D00000F8012B491EFBD270470022F6E710B54B
:1002E00013460A4604461946FFF7F0FF204610BDA4
:1002F0002DE9FE4F804681EA0300C00F0C460090B6
:1003000021F0004123F00045B8EB0200A94105D2DD
:100310004046214690461C460B46024623F00040CC
:10032000104347D0270DC7F30A00C3F30A510290C8
:10033000401A019040286BDAC3F3130040F4801B8D
:100340000098924620B10023D2EB030A63EB0B0B1B
:1003500001985946C0F14002504600F093F9064614
:100360000D4650465946019A00F0ABF910EB0800D3
:100370006141002487EA115284EAE7731A4340D0AE
:10038000009A62B3019A012A4FEA075215DC001B5A
:1003900061EB02014FF0004202EA0752CDE9004250
:1003A000001C41F5801132462B4600F0ABF903B03A
:1003B00000F045B840462146F9E7001B61EB020119
:1003C000001C41F5801300185B412018A2F50017AE
:1003D00047EB030140EAD570B6196D4111E06D0895
:1003E0004FEA360645EAC0754FEA0752001B61EB3B
:1003F0000201001C41F5801149084FEA3000001944
:10040000514132462B4603B000F01CB800F06BB9E6
:100410000098012240000023D0EB020263EBE0735E
:10042000009821464FEAE074B8EB000061EB04014C
:10043000E9E783F000435BE781F0004158E730BC17
:10044000BDE8C08F30BCBDE8C04FFFF7DFBF2DE96E
:10045000FE4F81EA030404F0004421F000410094BF
:100460004FF0000B23F0004350EA01045ED052EA43
:1004700003045BD0C3F30A54C1F30A552C44A4F21D
:10048000F3340194A0FB0254C1F3130141F4801131
:10049000C3F3130343F4801301FB024400FB034E38
:1004A000840A970A44EA815447EA8357A4FB076801
:1004B00002958D0A05FB07854FEA932C04FB0C542B
:1004C0002705029D4FEA065847EA1637B5EB08059F
:1004D0006EEB070C870E920E47EA811742EA8312F1
:1004E000A7FB0201B6EB0B0164EB00042B0D43EA02
:1004F0000C335E1844EB1C50DA465146E7FB020110
:10050000C5F313044FEA0B3343EA14534FEA0432A2
:10051000019C43EA0603A4F10C040294009CCDE97B
:1005200000B400F0EFF803B000F003B8002001467B
:10053000F9E730BCBDE8C08F2DE9F04D81EA030436
:1005400004F0004B21F0004514464FF0000A23F060
:10055000004150EA050220D054EA01021DD0C5F343
:100560000A570246C5F31303C1F31300C1F30A5639
:1005700040F4801543F48013A7EB0608101BD64601
:1005800008F2FD3873EB050002D308F1010801E021
:1005900092185B41B8F1000F03DA00200146BDE874
:1005A000F08D00204FF48011064684460EE0171BA4
:1005B00073EB050705D3121B63EB050306434CEAF7
:1005C000010C49084FEA300092185B4150EA0107DC
:1005D000EDD152EA030012D082EA040083EA050159
:1005E000084305D0101BAB4106D20122002306E0D0
:1005F00000224FF0004302E06FF0010253101AEBAB
:1006000006004CEB085110EB0A0041EB0B01BDE872
:10061000F04D00F068B80EB5C10F80EAE0700844F4
:10062000CA07002140F233438DE80E000A460B460C
:1006300000F068F803B000BD0EB540F233410291FE
:100640000021CDE900110A460B4600F05BF803B02B
:1006500000BDC1F30A5210B5C1F3130140F2FF33DC
:1006600041F480119A4201DA002010BD40F2334378
:100670009A42A2F2334203DC524200F012F810BD5B
:10068000904010BD202A04DB203A00FA02F100203D
:1006900070479140C2F1200320FA03F319439040C0
:1006A0007047202A04DB203A21FA02F0002170472B
:1006B00021FA02F3D040C2F12002914008431946CA
:1006C0007047202A06DBCB17203A41FA02F043EAB2
:1006D000E07306E041FA02F3D040C2F120029140FB
:1006E00008431946704710B5141E73F1000408DA68
:1006F000401C41F1000192185B411A4301D120F0E6
:10070000010010BD2DE9F04D92469B4611B1B1FAA2
:1007100081F202E0B0FA80F220329046FFF7B2FF99
:1007200004460F4640EA0A0041EA0B0153465A4686
:10073000084313D0114653EA010019D0C8F1400212
:100740005046FFF7AEFF05460E4650465946424614
:10075000FFF798FF084305D0012004E02046394602
:10076000BDE8F08D0020054346EAE0762C43374390
:100770000A986305E40AA0EB08000022FD0A44EA97
:1007800047540A3002D500200146E9E70105101957
:100790006941DDE9084500196941BDE8F04DA2E76E
:1007A000064C074D06E0E06840F0010394E80700BE
:1007B00098471034AC42F6D3FFF7ECFC64580008BD
:1007C0008458000810B5846A616D11F0500F06D08E
:1007D000616DC90625D5204600F08BFA10BD606D0D
:1007E00040F40070606520680168090716D502F0C2
:1007F0000FF878B12068C068800400280ADB606DBB
:1008000020F480706065606DC00403D4606D40F0BA
:1008100001006065204600F06AFA10BDC0688007DC
:10082000EBE7E16C496BBDE81040084710B5806A02
:10083000416D41F040014165816D41F004018165E8
:1008400000F057FA10BD10B5806A00F051FA10BDE3
:1008500070B504460068816811F0010F28D18168E5
:10086000144A114215D18168D5432940491C816041
:1008700000F0C2FE064616E0816811F0010F03D1B8
:1008800081682940491C816000F0B6FE801B022867
:1008900009D9606D40F010006065A06D40F0010066
:1008A000A065012070BD20680168C943C907E3D174
:1008B000002070BD3F000080FEE70000014800F00E
:1008C000AABC00006001002030B590F8444004F05C
:1008D0001C050124AC40056C6C600468636083688F
:1008E000102B036803D099600068C26030BD9A6025
:1008F0000068C16030BD704772B6FEE72DE9F84F61
:1009000000270446009790F85000DFF8B0930D469A
:10091000B846012811D0012684F85060206801F003
:1009200073FF60B1606D40F0200060655FF001070B
:1009300084F85080384600F0D7B90220FBE7686899
:100940000C23052812D8022807D0032807D0042832
:1009500007D0052807D0062007E06B6006E01220CC
:1009600003E0182001E04FF480706860D5E90021B1
:10097000206803EA91131844036B01F01F014FF044
:100980001F0C0CFA01FCC2F3846223EA0C038A40B8
:1009900013430363206801F037FF8246206801F0AB
:1009A0002FFF5AEA00001DD1AA682968206801F0CB
:1009B00037FF20686969C268C2F3C10252009140E2
:1009C0002A69042A0FD000EB82002B68026EDFF840
:1009D000F0C203F0F84302EA0C020B431A4342F060
:1009E0000041016672E0002101F004FF400320682D
:1009F0004FF0000172D001F0FDFE90FAA0F0B0FAC5
:100A000080F1286842036ED090FAA0F0B0FA80F02E
:100A1000814204D100221146206801F010FF01211B
:100A2000206801F0E7FE400320684FF001015DD02F
:100A300001F0E0FE90FAA0F0B0FA80F128684203DD
:100A400059D090FAA0F0B0FA80F0814204D100228F
:100A50000121206801F0F3FE0221206801F0CAFEA6
:100A6000400320684FF0020148D001F0C3FE90FA25
:100A7000A0F0B0FA80F12868420344D090FAA0F0C8
:100A8000B0FA80F0814204D100220221206801F0F6
:100A9000D6FE0321206801F0ADFE400320684FF030
:100AA000030133D001F0A6FE90FAA0F0B0FA80F175
:100AB000286842032FD090FAA0F0B0FA80F081426B
:100AC00004D100220321206801F0B9FE206881686A
:100AD00011F0010F22D0ACE000E004E001F08AFE4A
:100AE000C0F384618DE7C0F3846091E701F082FE7A
:100AF000C0F38461A2E7C0F38460A6E701F07AFE48
:100B0000C0F38461B7E7C0F38460BBE701F072FE15
:100B1000C0F38461CCE7C0F38460D0E72A7B296806
:100B200050F8B03FC1F3120C23EA0C0302F0180C8A
:100B3000644A22FA0CF20A4013430360E96849450B
:100B400077D1286841031CD090FAA0F1B1FA81F165
:100B5000491C01F01F0109294FEA403132D8002910
:100B600012D000BF90FAA0F1B1FA81F101F10101B8
:100B700001F01F0106FA01F609D100BFC0F384613C
:100B800009E0C0F38461E3E7C0F38461EEE790FA23
:100B9000A0F1B1FA81F101F1010101F01F0146EA72
:100BA000816102D1C0F3846003E090FAA0F0B0FA52
:100BB00080F000F1010000F01F0000EB400041EA6E
:100BC000005132E000290ED090FAA0F1B1FA81F183
:100BD00001F1010101F01F0106FA01F606D100BF83
:100BE000C0F3846106E0C0F38461F1E790FAA0F1FC
:100BF000B1FA81F101F1010101F01F0146EA8161C1
:100C000002D1C0F3846003E090FAA0F0B0FA80F063
:100C100000F1010000F01F002B4A00EB400002EB46
:100C2000005041EA000141F00071AA68206801F01B
:100C3000F7FD26482A6802423FF47AAE24488168CC
:100C4000244D254B01F0E071AA421AD10D0218D4AF
:100C500022689A427FF46CAE826841F4000122F06F
:100C6000E0720A4382601D481D490068B0FBF1F044
:100C700000EB4000800000E0401E00900028FBD107
:100C800056E6184DAA4207D1CD0105D422689A42F2
:100C9000F6D141F080710AE06FF00045EA42EFD1F1
:100CA0004A02EDD422689A42EAD141F48001826876
:100CB00022F0E0720A4382603AE6000000007F40C2
:100CC00000F0FF03FFFF0700000020FE0000088087
:100CD00000030450000052C70000045080000020B0
:100CE000400D0300000084CB18BCBDE8E08F7047C6
:100CF00070477047F8B54FF0000504002E46009588
:100D000002D0606D10B107E00120F8BD204600F070
:100D1000C7F8A66584F8506020688168C1F3407107
:100D200019B18168564A1140816020688168C1F319
:100D3000007179B98168534A114041F08051816056
:100D4000514852490068B0FBF1F000E0401E0090AD
:100D50000028FBD120688168C1F3007141B9616D41
:100D600041F010016165A16D41F00101A16501250E
:100D700001F04AFD616DC90600D430B1606D40F0EC
:100D80001000606501252846F8BD606D20F4807074
:100D900040F0020060652068806810F0010F0BD100
:100DA0003B48806810F0010F06D13A4861688268BC
:100DB00022F47C120A438260E168606B627E084321
:100DC000A16841EA4231084394F8201040EA01400A
:100DD000012904D1A18C304A02EB41410843A16AA8
:100DE00029B101F47071E26A014342EA010021680D
:100DF000CA682A4B1A400243CA60206801F004FD09
:100E00000646206801F0FCFC304315D1207E94F8A2
:100E10003010800340EA41022068C16844F20203B6
:100E200099431143C16094F8380001280CD0206820
:100E3000016921F001010161206901282068016B2D
:100E400021F00F0111D013E0D4E90F010843D4E9D8
:100E500011121143084321680A6940F2FC739A4356
:100E6000104340F001000861E6E7E269521E1143B9
:100E70000163606D20F0020040F00100606582E7D0
:100E8000C0FFFF5FC0FFFF7F80000020400D030018
:100E900000000450000304500000FEFF07C0F0FFF4
:100EA00070B586B0064614216846FFF716FA234946
:100EB000306888423FD12249C86C40F40050C86471
:100EC000C86C00F400500590C86C40F00400C86481
:100ED000C86C00F004000590C86C40F00100C864C4
:100EE000C86C0B2400F0010005900F2000258DE850
:100EF00031006946134800F095FA02208DE8310070
:100F000069464FF0904000F08DFA104C0E48C4E94D
:100F100000058020A560C4E90350400060618000A6
:100F2000C4E906052046256200F0D2F908B1FFF7B2
:100F3000E3FCF464A66206B070BD0000000004503B
:100F40000010024000080048080002406001002034
:100F500070B5044615460E46006801F055FCE0BB2E
:100F600094F85000012842D0012084F85000204617
:100F7000FFF76EFC002110B184F8501070BD606D59
:100F800040F60162904340F480706065606DC0047B
:100F900004D5A06D20F00600A06500E0A165E26C1C
:100FA0001448D062E26C14481063E26C134850633A
:100FB00022681C20106084F850102068416841F0BD
:100FC000100141602068C16841F00101C1602168E1
:100FD0002B4632464031E06C00E008E000F0D8F9E2
:100FE00021688A68064B1A40121D8A6070BD022073
:100FF00070BD0000C5070008470800082D0800085C
:10100000C0FFFF7F2DE9F0470446407900270E46D8
:1010100001280BD04FF0010984F8059002202071BF
:10102000306802F01005042803D043E00220BDE838
:10103000F0874FF0030802BB00F0DEFA074604E039
:1010400000F0DAFAC01B01280FD82068406B0004BA
:10105000F6D4012000F0D4F92168B069086416E0E4
:1010600000F0CAFAC01B012807D9206940F0080027
:10107000206184F804800320D9E72068406B0028B1
:10108000EEDB012000F0BCF92168B06948642068FB
:10109000816C40F2FF32AA409143F269AA401143A9
:1010A00081642068C16CFF22AA409143326AAA4041
:1010B0001143C1643069012808D12268916B1F2057
:1010C000A84081437069A840084390632268D16BAF
:1010D0000720A8408143B36830681843F368184379
:1010E000A8400843D063206801684FF48042AA40BA
:1010F000914301602268116840F6FC70A84081436A
:101100007068A8400843106020680168C022AA40A7
:101110009143016084F804900020607187E770B506
:10112000040003D02079002510B105E0012070BD36
:101130006571204600F008F8022020712561012029
:101140002071002070BD000010B586B00446142147
:101150006846FFF7C2F81149206888421BD1104841
:10116000816D41F000518165816D01F00051059163
:10117000C16C41F00101C164C06C694600F001001E
:1011800005901020009003200190002002904FF065
:10119000904000F047F906B010BD00000074004018
:1011A0000010024018B5046800940068104421B192
:1011B000143000900360002018BD0830F9E770B5C6
:1011C0004279012A14D0012242710223037103687B
:1011D0001D6801F0100602FA06F425431D6000297F
:1011E00001680B6806D0C3F38343012B0AD00DE0DE
:1011F000022070BDC3F38303012B07D14B6843F07A
:10120000010302E04B6843F002034B6002710021CE
:101210004171084670BDF0B4016C0C6801680D683E
:1012200090F8442002F01C06042202FA06F323423E
:1012300011D06B070FD50B689B0603D40B6823F006
:1012400004030B6090F8441001F01C018A40016C0B
:101250004A60016B1DE0022303FA06F727424FF0B4
:10126000000C4FF0010218D0AF0716D50C68A40689
:1012700005D40C6824F00A040C6080F8252090F84E
:10128000441001F01C018B40016C4B6080F824C0BD
:10129000C16A00291AD0F0BC08470823B340234292
:1012A00014D02B0712D50B6823F00E030B6090F8B7
:1012B0004410036C01F01C0102FA01F15960C26391
:1012C00080F8252080F824C0416BE2E7F0BC70472D
:1012D00070B568B12B4C036814212B4AA34209D284
:1012E0002A4C1C44B4FBF1F18900C0E910210BE049
:1012F000012070BD234C64421C44B4FBF1F1890011
:101300004164204908390164022180F825101C68D5
:1013100047F6F0718C43D0E902152943D0E9045611
:101320003543294385692943C5692943056A29430A
:10133000214319608168B1F5804F19D0036C0F21EA
:10134000934202D152F8A83F02E00E4AA03213683D
:1013500090F8444004F01C04A1408B43136090F8C3
:101360004430416803F01C0399401368194311602D
:101370000021C163012280F8252080F8241008464E
:1013800070BD00000804024000000240F8FFFDBFED
:1013900070B5044690F82400002501280CD00120E7
:1013A00084F8240094F825600020012E06D084F8EB
:1013B00024000225284670BD022070BD022684F854
:1013C0002560E0632068066826F001060660204676
:1013D000FFF77AFA206B00282068016802D041F0FC
:1013E0000E0106E021F0040101602068016841F06F
:1013F0000A0101602068016841F001010160D9E73C
:1014000070B5044600F0F8F80546601C02D00448A8
:101410004068044400F0F0F8401BA042FAD370BDCD
:10142000740000202DE9FC4FDFF894A10023012572
:101430000AF1040B03244FF00F0C0BF1040EB8E07B
:1014400005FA03F632406FD04F68012F05D0022F06
:1014500003D0112F01D0122F17D1D0F808905F00C0
:1014600004FA07F829EA08090097D1F80C8008FA6D
:1014700007F848EA0908C0F808804768B7430E79BA
:10148000C6F300169E403E434660C6684FEA4308D6
:1014900004FA08F7BE4301978F6807FA08F7374345
:1014A000C7604E68022E01D0122E13D1DE0800EB69
:1014B00086060096366A5F07FF0E0CFA07F926EAE1
:1014C0000906D1F8109009FA07F949EA0609009EC1
:1014D000C6F820900668019FBE430F7907F0030706
:1014E00007FA08F7374307604E68F60060D5354EB7
:1014F000376E47F001073766366E23F0030706F0B4
:1015000001060096304E3E44B146B6689F074FEA4A
:1015100017780CFA08F7BE43B0F1904F05D02B4F67
:10152000B84204D1012712E042E000270FE0284F23
:10153000B84201D102270AE0264FB84201D1032761
:1015400005E0254FB84201D1042700E0072707FA3C
:1015500008F73743C9F80870DAF800605746D1F841
:10156000048096435FEAC83800D516433E60DBF836
:1015700000605F46D1F8048096435FEA883800D562
:1015800016433E60DEF800607746D1F8048096434B
:101590005FEAC82800D516433E60094F0C373E6805
:1015A000D1F8048096435FEA882800D516433E6050
:1015B0005B1C0A6832FA03F67FF442AF00F00EB803
:1015C00000040140001002400000014000040048F7
:1015D00000080048000C0048001000481CBCBDE892
:1015E000E08F0069084000D0012070470AB1816196
:1015F00070478162704700000148806870470000B2
:10160000740000200248816842681144816070477C
:101610007400002010B50024032000F075F80F209E
:1016200000F008F808B1012401E000F025F8204698
:1016300010BD000070B50E4E05460024706898B1CC
:101640004FF47A71B1FBF0F00A490968B1FBF0F090
:1016500000F0E8FE40B9102D06D200222946501EA7
:1016600000F032F8356000E00124204670BD000033
:1016700074000020800000200B4882B0016E41F011
:1016800001010166016E01F001010091816D41F0DF
:1016900080518165806D002200F0805000900F2104
:1016A000901E02B000F010B800100240002809DBC4
:1016B00000F01F02012191404009800000F1E0206C
:1016C000C0F8001170470000F0B40E4B1B680C46C8
:1016D000C3F30223C3F10705042D00D90425191D06
:1016E000072901D2002300E0DB1E012606FA05F1DE
:1016F000491E214099409E40761E16403143F0BC61
:1017000001F021BE0CED00E0064900F00702086878
:101710004FF6FF03184040EA0220034A10430860D6
:10172000704700000CED00E00000FA051649B0F526
:10173000007F0868C0F3412009D0022805D008685E
:1017400020F4C06040F480600860002070470128E9
:10175000FBD0086820F4C06040F4007008600B48BB
:101760003222006850430A4AB0FBF2F0401C00E00D
:10177000401E4A69520501D50028F9D14869400543
:10178000E3D5032070470000007000408000002077
:1017900040420F000248006800F4C060704700003B
:1017A000007000402DE9F84F044600270088A84D3E
:1017B0003E46000515D5606C60B1B0F5000F04D051
:1017C000B0F5400F2BD001270AE0E86840F48030E4
:1017D000E86024E00021201D01F034FA07001ED04B
:1017E0003E46206880033AD5A86D4FF00008C0003F
:1017F00009D4A86D40F08050A865A86D4FF001088D
:1018000000F080500090DFF84CA2DAF8001041F4AC
:101810008071CAF80010FFF7EFFE814610E0D5F89E
:101820008800616C20F440000843C5F88800D8E7C0
:10183000FFF7E2FEA0EB0900022801D9032705E02B
:10184000DAF80000C005F3D5002F7DD04FEA070677
:10185000B8F1000F03D0A86D20F08050A865207863
:10186000C00707D0D5F88800216A20F0030008439C
:10187000C5F888002078800707D5D5F88800616A08
:1018800020F00C000843C5F888002078400707D5F1
:10189000D5F88800A16A20F030000843C5F8880018
:1018A0002078800607D5D5F88800E16A20F44060EA
:1018B0000843C5F888002088800507D5D5F888003A
:1018C000E16B20F440200843C5F8880020884005DB
:1018D00007D5D5F88800216C20F440100843C5F8DE
:1018E00088002078400607D5D5F88800216B20F4C1
:1018F00040500843C5F888002078000607D5D5F881
:101900008800616B20F440400843C5F888002088B7
:10191000C00507D5D5F88800A16B20F440300843F6
:10192000C5F8880020684FF0006700034FF080681A
:1019300050D5D5F88800A16C20F040600843C5F868
:101940008800A06CB84200E005E03BD1E86840F4B4
:101950008010E8603EE0D5F8900010F4407014D09C
:10196000A16D814211D0D5F89000D5F8901020F4E7
:10197000407041F48031C5F89010D5F8901021F4F2
:101980008031C5F89010C5F89000C00711D0FFF75E
:1019900033FE074641F2883907E000BFFFF72CFE0F
:1019A000C11B494501D9032652E7D5F890008007AD
:1019B000F4D5D5F89000A16D20F440700843C5F827
:1019C000900045E7404505D10121201D01F03AF97D
:1019D00000B106462068400317D5D5F88800E16CB1
:1019E00020F040600843C5F88800E06CB84204D19C
:1019F000E86840F48010E86007E0404505D1012127
:101A0000201D01F01FF900B106462088400411D5C1
:101A1000D5F88800216D20F040500843C5F88800B3
:101A2000206DB0F1805F05D10221201D01F00AF97F
:101A300000B106462088000406D555F8880F616D70
:101A400020F0804008432860304600F005B80000D0
:101A5000001002400070004018BCBDE8E08F00009C
:101A60002DE9F0470F46050058D0404E306800F091
:101A70000700B84209D2306820F0070038433060D0
:101A8000306800F00700B84248D12878384CC007C9
:101A90002CD06868032811D0022812D0216898B190
:101AA000490500293ADAA16821F003010143A16048
:101AB000FFF7A2FD804641F2883910E021688901D4
:101AC000EFE721688903ECE78907EAE7FFF794FD70
:101AD000A0EB0801494502D90320BDE8F087A068C2
:101AE000696800F00C00B0EB810FEFD12878800717
:101AF00005D5A068A96820F0F0000843A060306810
:101B000000F00700B8420BD9306820F007003843D6
:101B10003060306800F00700B84201D00120DCE7F7
:101B20002878400705D5A068E96820F4E0600843FC
:101B3000A0602878000706D5A068296920F46050C5
:101B400040EAC100A06000F01BF8A168094AC1F397
:101B50000311515C01F01F01C840074908600748A4
:101B60000068BDE8F047FFF765BD000000200240B7
:101B70000010024018580008800000207400002067
:101B800070B52549002318468A68CC6812F00C020B
:101B900004F00306214C4FEA640509D00C2A05D055
:101BA000042A32D0082A00D1284670BD012E10D157
:101BB0000B681B0704D4D1F89430C3F3032302E06D
:101BC0000B68C3F30313164E56F82330DAB10C2A10
:101BD000EBD1C86800F00300022818D0032818D001
:101BE0001846CA68CB68C2F30212C3F30623434304
:101BF000521CB3FBF2F2C868C0F34160401C4000C5
:101C0000B2FBF0F070BD184670BD204670BD204696
:101C1000E7E72846E5E70000001002400024F40052
:101C2000285800082DE9F84304006FD0FE4DA8683D
:101C300000F00C06E86800F003072078C00664D5C1
:101C400076B10C2E01D1012F0AD0A0690028286896
:101C50007AD040F001002860FFF7CEFC80465DE0BE
:101C60002868800702D5A0690028DED0216A28688C
:101C7000000703D5286800F0F00004E0D5F89400D0
:101C8000F02202EA1010814216D9084601F070F8DD
:101C900000283BD1286840F0080028602868216AA5
:101CA00020F0F000084328606868E16920F47F4074
:101CB00040EA0120686016E0286840F008002860CB
:101CC0002868216A20F0F000084328606868E1690C
:101CD00020F47F4040EA0120686026B9206A01F0C4
:101CE00047F80028D5D1FFF74BFFA968CF4AC1F3C9
:101CF0000311515C01F01F01C840CD490860CD4877
:101D00000068FFF797FC00287ED12EE0CAE000BFF4
:101D1000FFF772FCA0EB0800022876D8286880073D
:101D2000F6D5286840F0080028602868216A20F06D
:101D3000F000084328606868E16920F47F4040EAC9
:101D40000120686011E0FFE720F001002860FFF744
:101D500053FC804606E000BFFFF74EFCA0EB0800F6
:101D60000228DAD828688007F6D42078C00740D047
:101D7000082E18D00C2E01D1032F14D06068B0F5B6
:101D8000803F17D0B0F5A02F286817D020F48030FE
:101D90002860286820F4802028606068E0B1FFF7A0
:101DA0002BFC804614E02868800322D56068002858
:101DB00078D01EE0286840F48030EDE740F48020C1
:101DC0002860F7E7FFF718FCA0EB08006428A4D808
:101DD00028688003F6D50CE0FFF70EFC804605E08E
:101DE000FFF70AFCA0EB0800642896D82868800357
:101DF000F6D4207880073BD5042E11D00C2E01D1CB
:101E0000022F0DD0E06801E0B6E1FFE0002828686D
:101E10001ED040F480702860FFF7EEFB07460CE010
:101E2000286840050CD5E0680028C1D008E000BF54
:101E3000FFF7E2FBC01B022893D828684005F7D5BE
:101E40006868217C20F0F85040EA016068600FE08B
:101E500020F480702860FFF7CFFB074605E000BF45
:101E6000FFF7CAFBC01B0228B1D828684005F7D489
:101E70002078000729D560690028D5F8940012D091
:101E800040F00100C5F89400FFF7B6FB074604E0F8
:101E9000FFF7B2FBC01B022899D8D5F89400800741
:101EA000F6D512E02BE120F00100C5F89400FFF711
:101EB000A3FB074605E000BFFFF79EFBC01B0228FF
:101EC00085D8D5F894008007F6D42078400766D5E9
:101ED000A86D0027C00008D4A86D40F08050A86508
:101EE000A86D012700F08050009053480168C90593
:101EF00012D40168814641F480710160FFF77CFBD8
:101F0000804605E0FFF778FBA0EB080002287DD8AB
:101F1000D9F80000C005F5D5A068012816D005281D
:101F2000D5F8900017D020F00100C5F89000D5F842
:101F3000900020F0040000BFC5F89000A06841F2B6
:101F40008839C0B1FFF758FB80460FE0D5F8900004
:101F500040F00100F0E740F00400C5F89000F5E71C
:101F6000FFF74AFBA0EB080149454FD8D5F8900090
:101F70008007F5D50EE0FFF73FFB804606E000BF87
:101F8000FFF73AFBA0EB080149453FD8D5F8900090
:101F90008007F5D41FB1A86D20F08050A865207887
:101FA000800628D5606A0028D5F8980012D040F045
:101FB0000100C5F89800FFF71FFB074605E000BFCA
:101FC000FFF71AFBC01B022820D8D5F8980080071D
:101FD000F6D510E020F00100C5F89800FFF70CFBE3
:101FE000074604E0FFF708FBC01B02280ED8D5F80F
:101FF00098008007F6D4A06AA8B1022824D00C2E3D
:102000007DD0286820F08070286000E0B3E0286868
:10201000000103D4E86820F00300E860E86807499D
:102020000840E8600CE09FE00010024018580008EB
:10203000800000207400002000700040FFFFEEFED2
:10204000FFF7DAFA044699E0E868E26A00F0030173
:10205000914226D1216B00F07002090110399142A2
:102060001FD1626B00F4FE41B1EB022F19D194F83D
:10207000382000F07841B1EBC26F12D1A18F00F48B
:10208000C00249084905A1F50011914209D194F80F
:10209000401000F0C06049084906A1F1007181427A
:1020A0004BD00C2E6FD0286840016CD4286820F0EB
:1020B00080702860FFF7A0FA064604E0FFF79CFA5C
:1020C000801B022857D828688001F7D4F4E90B0157
:1020D0006FF00F0202EB01110843218A52044908F4
:1020E00002EB4151A26841EA02210843217D4FF0F1
:1020F0007E42490802EB41610843217B00E042E057
:1021000040EAC160E968214A11400843E860286854
:1021100040F080702860E86840F08070E860FFF769
:102120006BFA044605E000BFFFF766FA001B0228C1
:1021300021D828688001F7D523E02868800120D4C1
:10214000286840F080702860E86840F08070E8609F
:10215000FFF752FA044604E0FFF74EFA001B02288C
:1021600009D828688001F7D50BE000BFFFF744FAD3
:10217000001B022802D90320BDE8F88328688001EB
:10218000F4D40020F8E70120F6E700008C809D01E0
:102190002DE9F041040005D00025A56294F85D000A
:1021A00018B107E00120BDE8F08184F85C502046BA
:1021B00000F044F8022384F85D302068016821F0C3
:1021C00040010160E0684FF4E066B04201D90021AF
:1021D00001E04FF48051B0F5706F02D0B04200D0F2
:1021E000A562276B012227B9B04201D9236300E021
:1021F0002263D4E901031843D4E904363343184376
:10220000238B03F400731843E3691843236A1843CC
:10221000A36A184323681860636B606AA669184351
:102220000427E36807EA1646334318430843216846
:102230004860256684F85D200020B4E710B586B0BC
:10224000044614216846FEF748F81349206888427E
:102250001FD11248016E41F480510166016E01F4F4
:1022600080510591C16C41F00101C164C06C6946A7
:1022700000F001000590A0200090022001900020B5
:10228000029003200390052004904FF09040FFF748
:10229000C9F806B010BD0000003001400010024037
:1022A0002DE9F84F044690F85C0000271D461646BD
:1022B000894601280DD04FF0010B84F85CB0FFF780
:1022C0009BF9804694F85D00BA46012804D00227A5
:1022D0009FE0022000F0A3B8B9F1000F6FD0002EEC
:1022E0006DD0032084F85D00C4F860A0C4F8389075
:1022F000A687E687C4F840A0A4F844A0A4F846A0A6
:10230000C4F850A0C4F84CA0A068B0F5004F04D1A8
:102310002068016841F48041016020680168490635
:1023200003D4016841F040010160E068B0F5E06F5E
:10233000606823D908B1012E1CD1A06B21680088E8
:10234000C86006E020688168890709D5A16B098803
:10235000C160A06B801CA063E08F401EE08709E095
:10236000FFF74AF9A0EB0800A84202D3681C01D08D
:1023700046E0ADB3E08F0028E4D136E008B1012E8D
:1023800030D1E08F0128A06B03D921680088C86094
:102390000FE021680078087314E0E08722E02068ED
:1023A0008168890714D5E18F0129A16B08D90988B3
:1023B000C160A06B801CA063E08F801EEDE727E06A
:1023C00009780173A06B401CA063E08F401EE4E716
:1023D000FFF712F9A0EB0800A84202D3681C01D055
:1023E0000EE06DB1E08F0028D9D142462946204643
:1023F00000F0FCFC08B120202066A06810B105E0C8
:10240000032706E02068C16880680090206E00B154
:10241000012784F85DB084F85CA038465AE718BC00
:10242000BDE8E08F10B5401EB0F1807F01D30120E0
:1024300010BD4FF0E02460610F21601700F083FFB2
:102440000020A06107202061002010BD7047704768
:1024500070470000F0B590F83C20012A29D00124F3
:1024600080F83C40022280F83D2003685A689D684D
:10247000114EB34203D122F470074A683A4322F066
:1024800070070A683A435A600268B24205D0B2F156
:10249000804F02D0094B9A4204D1896825F080030D
:1024A0001943916080F83D40002180F83C100846B7
:1024B000F0BD0220F0BD0000002C014000400140B2
:1024C00010B5040003D094F83D0010B107E00120DE
:1024D00010BD002084F83C00204600F00DF80220DA
:1024E00084F83D00211D206800F066FE012084F87C
:1024F0003D00002010BD000038B505460068154CB1
:10250000B0F1804F0FD1A06D40F00100A065A06D2B
:10251000002200F00100009006211C20FFF7D4F8F3
:102520001C20FFF7C3F80C492868884211D1A06D20
:1025300040F02000A065A06D002200F02000009077
:1025400007213720FFF7C0F8BDE838403720FFF7F4
:10255000ADB838BD00100240001400400168CA68E0
:1025600042F00102CA6001688868064A10400628E5
:1025700006D0B0F5803F03D0086840F00100086045
:10258000002070470700010070B5044690F83C0039
:10259000012817D0012584F83C50022084F83D0022
:1025A000226890682E4B184020F47F4090600868A5
:1025B000502830D00DDC20284DD005DC98B31028F1
:1025C0003BD148E0022070BD302844D0402834D1AF
:1025D00039E0602828D0702806D0B0F5805F2CD074
:1025E000B0F5005F29D10AE0CB68D1E9012120686C
:1025F00000F018FE2068816841F0770109E0CB689F
:10260000D1E90121206800F00DFE2068816841F4C5
:102610008041816011E0CA684968206800F014FEBA
:102620005021206807E016E0CA684968206800F079
:102630001CFE6021206800F0FFFD84F83D50002062
:1026400084F83C0070BDCA684968206800F0FCFD51
:1026500040212068EFE7226801461046EBE70000C2
:1026600088FFFEFF704770B50446006801694FF0AF
:102670000005C943890715D4C168C943890711D426
:10268000E91E0161012020772068806980072046CB
:1026900002D0FFF7E7FF04E000F0A7F8204600F0C3
:1026A000A5F8257720680169C943490717D4C1688F
:1026B000C943490713D46FF0040101610220207758
:1026C0002068806910F4407F204602D0FFF7CAFFDF
:1026D00004E000F08AF8204600F088F825772068AA
:1026E0000169C943090716D4C168C943090712D44F
:1026F0006FF008010161042020772068C06980071D
:10270000204602D0FFF7AEFF04E000F06EF820464E
:1027100000F06CF8257720680169C943C90617D411
:10272000C168C943C90613D46FF0100101610820C4
:1027300020772068C06910F4407F204602D0FFF760
:1027400091FF04E000F051F8204600F04FF82577A3
:1027500020680169C943C90708D1C168C943C907CD
:1027600004D1891E0161204600F041F8206801690A
:10277000C943090609D4C168C943090605D46FF0E5
:10278000800101612046FFF762FE20680169C943AC
:10279000C90509D4C168C943090605D46FF480711D
:1027A00001612046FFF752FE20680169C9434906CE
:1027B00009D4C168C943490605D46FF040010161DD
:1027C000204600F015F820680169C94389060BD43A
:1027D000C168C943890607D46FF020010161204612
:1027E000BDE87040FFF734BE70BD7047704770475A
:1027F0007047FEE700EB8100006E00F0F840704784
:102800008068C0F3C00070478068C0F380007047E4
:10281000C06810F4406F01D000207047012070475D
:10282000042303EAD15310B518444369C1F304519A
:1028300007248C40A3438A401343436110BD00EB3F
:102840008100016E21F000411143016670470000D4
:1028500030B587B018216846FDF73FFD2F482E4957
:102860000024C0E900140425456101218460C0E909
:102870000341047644760522C26180F82040C0E915
:102880000914C46280F83040446380F83840FEF791
:1028900031FA08B1FEF730F8214800900620CDE962
:1028A00001047F200594CDE9030569461B48FEF726
:1028B00025F808B1FEF720F81A4800900C20019086
:1028C00069461648FEF71AF808B1FEF715F81648DB
:1028D00000901220019069461048FEF70FF808B1E9
:1028E000FEF70AF8114800901820019069460B483D
:1028F000FEF704F808B1FDF7FFFF0D4800904FF414
:102900008070019069460548FDF7F8FF002801D066
:10291000FDF7F2FF07B030BD00000450FC000020BE
:102920001000C0100800900C040060080200300481
:102930004000201900B589B024216846FDF7CDFC80
:102940000D490C4808600846FEF7E9FB08B1FDF7A1
:10295000D3FF002000900190029003900246049063
:1029600069460548FEF74EFB002801D0FDF7C4FF7D
:1029700009B000BD00740040A8010020094808B556
:10298000816C41F001018164806C002200F0010043
:10299000009005210B20FEF797FEBDE808400B20B4
:1029A000FEF784BE001002402DE9F04F87B01421DD
:1029B0006846FDF792FC5E48C16C41F00401C164B9
:1029C000C16C01F004010591C16C41F00101C164C9
:1029D000C16C01F001010591C16C41F00201C164BB
:1029E000C06CDFF850B100F0020005900122102108
:1029F0005846FEF7FBFD4FF400780022414658464A
:102A0000FEF7F4FD10200124002503268DE8710057
:102A100069465846FEF706FD01AACDF8008082E817
:102A2000700069465846FEF7FDFC270201AA009790
:102A300082E8700069464FF09040FEF7F3FC4FF4D7
:102A4000004901AACDF8009082E8700069464FF075
:102A50009040FEF7E7FC4FF4805A01AACDF800A0A1
:102A600082E8700069464FF09040FEF7DBFC802062
:102A70008DE831000220039069465846FEF7D2FCEB
:102A800040208DE8710069465846FEF7CBFC2020B7
:102A9000CDE90005694602945846FEF7C3FC0420C0
:102AA000CDE90005694602944FF09040FEF7BAFC6C
:102AB000CDE90075694658460295FEF7B3FCE00281
:102AC000CDE90005694602944FF09040FEF7AAFC5C
:102AD000012241465846FEF789FD01224021584611
:102AE000FEF784FD012280215846FEF77FFD00227B
:102AF00039464FF09040FEF779FD002251464FF0E5
:102B00009040FEF773FD00F055FC0B490A1D08705C
:102B100010704C708C70CC705470D4700022494688
:102B20004FF09040FEF762FD07B000F007B80000DC
:102B300000100240000800485800002030BCBDE8EA
:102B4000C08F0000134810B5114901604FF4827125
:102B5000416000214FF4E062C0E902124FF40072BC
:102B60000161C0E905121022C2618022C0E908217A
:102B70000722C0E90A12016308214163FFF708FB3D
:102B8000002803D0BDE81040FDF7B6BE10BD000020
:102B9000003001403C02002010B588B000241648E7
:102BA0000094019402940394049405944FF080419E
:102BB000069401604F21C0E901143221C0E90314D9
:102BC0008461FFF77DFC08B1FDF796FE4FF480505D
:102BD000009069460848FFF7D7FC08B1FDF78CFE66
:102BE000049404A904480694FFF734FC002801D09B
:102BF000FDF782FE08B010BDBC0100203EB50024E8
:102C00000E48009401940C49029401604F21C0E9E0
:102C100001140A218461C160FFF752FC08B1FDF77D
:102C20006BFE0094694605480294FFF713FC0028E8
:102C300001D0FDF761FE3EBD00140040FC01002004
:102C4000FEE770472DE9F041444C05468846E068B0
:102C50000026810728680DD0E16801F00301814258
:102C600016D1A8B1E0686968C0F30210401C884220
:102C70000ED120E0012804D0022805D0032807D176
:102C800008E02168890701E021684905002907DB80
:102C900001265FE02168890302D421684903F5E732
:102CA000E1686A686FF00F0321F0730103EB021211
:102CB00011430143E160206820F080602060FEF74E
:102CC0009BFC074605E000BFFEF796FCC01B0228F0
:102CD00037D820680001F7D4B8F1000F18D0B8F148
:102CE000010F1DD0287D4FF07E41400801EB406070
:102CF000A96840EA01202169194A1140084320616E
:102D0000206840F080602060FEF776FC07461AE0FD
:102D1000A868297B000240EAC1602169114AECE7FA
:102D2000288A1149400801EB4050A96840EA012077
:102D300021690E4AE1E700BFFEF75EFCC01B0228D6
:102D400001D9032606E020680001F5D52069A969AC
:102D5000084320613046BDE8F081000000100240C9
:102D6000FF80FFF9FF80FF070000E0FFFF809FFF6B
:102D7000F8B51C4D06460024A86DC00002D5FEF72C
:102D800009FD0DE0A86D40F08050A865A86D00F029
:102D900080500090FEF7FEFCA96D21F08051A965DE
:102DA000B0F5007F04D0802E07D94FF003040AE06D
:102DB000802E08D9A02E01D804E001D1022402E01F
:102DC000702E00D101240848016821F00701214339
:102DD0000160006800F00700A04201D00120F8BDAA
:102DE0000020F8BD0010024000200240F8B5154652
:102DF0000E460B460092044600224FF4C05100F0EC
:102E000019F888B93346002280212046009500F049
:102E10005CF848B9334600224FF4C0612046009563
:102E200000F008F8002804D0206E40F02000206652
:102E30000320F8BD2DE9F0471D4617460E4604460F
:102E40004FF4C068DDF820900CE0464501D107B989
:102E5000007B681C06D0FEF7CFFBA0EB0900A84260
:102E600008D23DB1206881683140B942EDD10020DF
:102E7000BDE8F0872068416821F0E00141606068AA
:102E8000B0F5827F0BD1A068B0F5004F02D0B0F54D
:102E9000806F04D12068016821F040010160A06AC0
:102EA000B0F5005F09D12068016821F4005101608C
:102EB0002068016841F400510160012084F85D0040
:102EC000002084F85C000320D2E72DE9F0411D4684
:102ED00017460E460446DDF8188008E0681C06D048
:102EE000FEF78AFBA0EB0800A8420BD255B1206880
:102EF000806836EA000030D00020B842EED10020D1
:102F0000BDE8F0812068416821F0E001416060681F
:102F1000B0F5827F0BD1A068B0F5004F02D0B0F5BC
:102F2000806F04D12068016821F040010160A06A2F
:102F3000B0F5005F09D12068016821F400510160FB
:102F40002068016841F400510160012084F85D00AF
:102F5000002084F85C000320D2E70120CDE710B503
:102F6000FEF750FB02F090FA012803D0BDE81040B4
:102F700001F0BCBF10BD30B5ADB0442117A8FDF7BE
:102F8000ACF9142128A8FDF7A8F95C216846FDF7E3
:102F9000A4F91020179000248020CDE91E400125BF
:102FA0001D9517A82194FEF73DFE08B1FDF7A4FC7E
:102FB0000F20CDE928042A942B94002128A82C94D2
:102FC000FEF74EFD08B1FDF797FC44F201000090BA
:102FD000000714900820CDE9025007200490022039
:102FE000019505900690C005CDE907046846FEF7F7
:102FF000D9FB08B1FDF780FC4FF40070FEF796FB9B
:10300000002801D0FDF778FC2DB030BD0D480168D7
:1030100041F4700101600C48016841F00101016058
:10302000002181600268094B1A4002608214C2606C
:10303000026822F48022026081610249C003803963
:103040000860704788ED00E000100240FFFFF6EADC
:103050002DE9F0473748FFF706FB3748374C002586
:103060000078012668BB3649087850B3A068354A15
:10307000401CA06012684FF480594FF400484FF094
:10308000904790421ED830490988884203D800F002
:103090009DF9012825D100F075F9012807D100F02C
:1030A00095F920B9012249463846FEF79FFA0122D8
:1030B00040212648FEF79AFA002241463846FEF79C
:1030C00095FA0EE0A5600D70012241463846FEF7E4
:1030D0008DFA012249463846FEF788FA0F20E06053
:1030E00026701B4943F69822087838B16068401C66
:1030F0006060904202D317480D7006701649088828
:1031000008B1401E08801549086808B1401E0860D3
:10311000134B187800280AD012480188491C89B23C
:103120000180914203D305800F481D700670BDE8F1
:10313000F0870000BC010020580000200C00002097
:103140006900002034000020300000200008004802
:1031500060000020210000206E0000207000002090
:10316000650000206C0000206400002010B50F48AE
:10317000FFF779FA00F006F930B900224FF48051D8
:103180004FF09040FEF732FA094C207800280CD01E
:10319000E068002809D0401EE06006D100224021EE
:1031A0000448FEF723FA0020207010BDFC01002027
:1031B0000C0000200008004870B50268164B4FF064
:1031C0008046984201D0B04203D122F070044A6890
:1031D0002243124C124D984205D0B04203D0A04277
:1031E00001D0A84203D122F44076CA6832434E6926
:1031F00022F08002324302608A68C2620A688262F8
:10320000984203D0A04201D0A84201D109690163CC
:103210000121416170BD0000002C014000400140CF
:103220000044014010B5846842EA032224F47F443C
:103230000A432243826010BD826822F070020A4372
:1032400042F007018160704710B5036A046A24F0F8
:1032500001040462846924F0F00444EA021423F0B7
:103260000A020A438461026210BD10B5036A23F0AA
:10327000100303628369046A23F4704343EA023251
:1032800024F0A00343EA01118261016210BD10B570
:10329000FFF758FC0520FEF7B3F8002010BD000032
:1032A00070B50C4601001E4813D004F00705012933
:1032B0001CD0022922D0032930D100221021FEF790
:1032C00095F904F00F00BDE8704040F0C00000F038
:1032D00029B8002210210546FEF788F904F0030002
:1032E00000F020F801221021284613E000221021CE
:1032F0000446FEF77BF945F0400006E0002210216D
:103300000446FEF773F945F0880000F00BF801223F
:1033100010212046BDE87040FEF768B970BD00007E
:103320000008004808B501238DF800001A466946D8
:103330000348FEF7B5FF002800D0012008BD0000BB
:103340003C020020FEE70907090E002804DB00F11B
:10335000E02080F80014704700F00F0000F1E0203A
:1033600080F8141D704702E008C8121F08C1002A27
:10337000FAD170477047002001E001C1121F002AF6
:10338000FBD1704710B504214FF09040FEF729F9AA
:10339000002800D0012010BD10B54FF48071044802
:1033A000FEF71FF9012801D0012010BD002010BD3B
:1033B0000008004810B520210348FEF712F9002844
:1033C00000D0012010BD00000008004810B54FF4E7
:1033D00000614FF09040FEF704F9002800D0012072
:1033E00010BD00002DE9FC4789466449DDE90A5A11
:1033F000DDF8308091F818C04F7E00260C7DB8F1C2
:10340000000F12D08DF800C08DF80170C8788DF8CB
:1034100002008DF80460012A01D18DF80440012DCD
:1034200063D19DF80400204383E08DF80460534E7F
:10343000012D767D01D045B112E08DF800C08DF8E8
:1034400004608DF8017048784AE0012A08D13BB148
:103450008DF800C08DF804608DF8017088783FE029
:1034600055EA020603D075BB012A3BD15BBB0A2299
:103470006426A0F10A05A0F164034FF4617CB9F160
:10348000000F26D00A2805D28DF800408A7A8DF8E0
:10349000012024E05A2D06D2B0FBF2F30B448DF844
:1034A00000409B7A29E063451CD2B0FBF6F3CB5C6D
:1034B0008DF80030B0FBF6F306FB1303B3FBF2F319
:1034C0000B449B7A2AE00DE0B0FBF2F302FB130001
:1034D00005E00A280AD28DF800408DF80140085C0A
:1034E0008DF802005FEA0A001FD024E05A2D07D2AF
:1034F000B0FBF2F38DF80040CB5C8DF80130E3E7D0
:103500006345EFD2B0FBF6F3CB5C8DF80030B0FB37
:10351000F6F306FB1303B3FBF2F3CB5C8DF801303B
:10352000B0FBF6F306FB1300CEE79DF80400897D9F
:1035300008438DF8040002210020FFF7B1FE0021AE
:103540000120FFF7ADFE00210320FFF7A9FE0024B4
:103550006D46285DFFF7E6FE0020FFF7E3FE641CE2
:10356000052CF6DB012210210548FEF73FF8022169
:103570000846FFF795FE00F005B800003D0000206A
:10358000000800480CBCBDE8F08700000EB5DFF86D
:10359000A490294C294E2A4D2A4FDFF8ACA04FF0B9
:1035A000000800BF00F014FA2078C0B1012829D02B
:1035B000022831D00328F5D128780028F2D19AF8D2
:1035C00000000028EED08AF80080E078414632788A
:1035D0008DE807003B78A27800211C480EE099F89E
:1035E00000100029DED089F80080E0783278297850
:1035F0008DE807003B78A278154800210088FFF786
:10360000F1FECFE7E078327829788DE807003B7843
:10361000A27801210F48F1E728780028C2D131783B
:10362000E2780092CDE901013B78A27801210A48B5
:10363000E4E7000021000020600000206600002078
:10364000580000201E000020200000203000002034
:103650002A0000202C0000202E000020FDF7DAFFB9
:10366000FFF789FCFFF78AF9FFF7F2F8FFF762F935
:10367000FFF792FAFFF7C2FA00211648FDF79FFD07
:1036800000231A4619461348FDF78CFDFFF78CF905
:10369000FFF7FDFD00F044F80F4A00210F4800F04D
:1036A00077F80F4C0C4A002120600E4800F070F8AB
:1036B0006060094A00210C4800F06AF8A0600548E3
:1036C0001430FEF74BFF03485430FEF747FF00F07D
:1036D00041F8FEE7A8010020F45700088D350008E6
:1036E00000000020213D0008A53F000810B5EFF3C1
:1036F000058179B9EFF3108111B9EFF3118119B197
:1037000006490968022905D0002408B101F0E0F952
:10371000204610BD6FF00504FAE70000D400002039
:10372000EFF3058068B9EFF310820949086812B910
:10373000EFF311820AB1022803D028B14FF0FF3015
:1037400070476FF005007047012008600020704747
:10375000D400002010B5EFF3058070B9EFF31082AC
:103760000A49086812B9EFF311820AB1022804D09D
:10377000012805D04FF0FF3010BD6FF0050010BDDF
:103780000220086001F00CFA002010BDD4000020D7
:103790002DE9FF414FEA01034FF00005EFF30581EA
:1037A000039599BBEFF3108111B9EFF3118119B1B2
:1037B0001F490968022938D040B380261821002407
:1037C0004AB3176807B13C4697691FB139467F1E57
:1037D000382F02D21779FF0703D0002004B0BDE8CC
:1037E000F081576907B1BE08D2F808C0BCF1000FDC
:1037F0000DD0D5685C2D18D312693AB137B18DE878
:1038000006103246214601F013FE03900DE0D76802
:103810005FB912694AB903AACDE90012B2B22146D2
:1038200001F0D6FD012800D003950398D6E70000EB
:10383000D400002010B501460F4801292DED028B60
:103840009FED0E8B008802D0002912D13230FCF798
:10385000F3FE53EC182BFCF7FAFDFCF7FAFEBDEC77
:10386000028B03460022BDE8104011460548FDF7D3
:1038700099BCBDEC028B10BD2A00002052B81E85F9
:10388000EBD12840A80100202DE9F05FDFF820A14E
:1038900001274FF4004B4FF090490025454EDFF8CB
:1038A0001881464CFFF792FD00287DD13078002822
:1038B0007AD198F80110002976D198F80000FFF726
:1038C000B9FF2571002280215046FDF78FFEA079B7
:1038D00058B14FF49670608184F80650FFF776FD7A
:1038E00001282AD060890028F8D10122594648468B
:1038F000FDF77CFEC820FDF783FD002240215046E5
:10390000FDF774FE012211034846FDF76FFE2C48B7
:10391000056003E0FFF75AFD01280ED0FFF732FDE6
:103920000128F7D067713078F8B998F801000128BC
:103930001BD0FFF74BFD0028F0D000225946484627
:10394000FDF754FE6571012240215046FDF74EFE01
:1039500000224FF480514846FDF748FE1948277170
:10396000642100884843E06016E0657127710022F9
:1039700059464846FDF73AFE10E000BFFFF726FD26
:1039800010B1307890B902E0E5608BE70CE098F870
:10399000010001280AD0E0680028EFD1012280212F
:1039A0005046FDF723FEA77100F00EB8E560F5E77D
:1039B000000800481E00002058000020640000207D
:1039C000140000202C00002030BCBDE8C09F000087
:1039D0002DE9F05F0522C049C048FDF7B9FABE499C
:1039E000002001F10C0200BF52F8203031F81040E5
:1039F000234442F82030401CC0B21E28F4D308896A
:103A00000126B7490025B0F5586F01D94D7006E081
:103A1000A0F29D4340F6E304A34202D84E708D709D
:103A200005E040F29C43984201D84E708E700878B1
:103A3000401CC0B208701E287ED3C878052801D269
:103A4000401CC87000201E2352F82040B4FBF3F441
:103A500042F82040401CC0B21E28F5D3CC89CC824D
:103A60001068894687B28F81FCF7E6FD9FED9D1BAC
:103A700053EC112BFCF7EBFCFCF7EBFD0A3080B2AA
:103A8000A9F80E00FA2802D9FA21A9F80E10B9F8FF
:103A90000E10DFF858A2A14210D007F1080294429C
:103AA00002D8083FBC4209DAC90707D1904889F813
:103AB00005600078FFF7BEFE8AF800508648B9F826
:103AC0000A700C30A9F81670406884B2A9F80A4050
:103AD000FCF7B2FD9FED871B53EC112BFCF72CFD7F
:103AE000FCF7B7FD143080B24946A9F810004FF03A
:103AF000640B642801D9A9F810B00846098AB942B4
:103B00000DD004F108018F4202D8083CA74206DA22
:103B1000C178052903D379498AF800600D606E48A1
:103B2000B9F808700C30A9F81670806884B2A9F84A
:103B30000840FCF781FD00E0CBE09FED711B53ECEA
:103B4000112BFCF7F9FCFCF784FD401C80B24946C0
:103B5000A9F81200642801D9A9F812B0B1F812909E
:103B60000846B9450ED004F108018F4202D8083C3E
:103B7000A74207DAC178052904D3604902228AF8EE
:103B800000200D605449C7880C31C782898940F2F2
:103B900007728CB2611EC480914204D21621B4FB1C
:103BA000F1F10A318182A4F5E16040F6AC0188426E
:103BB00061D8FCF730FD9FED541B53EC112BFCF743
:103BC000BBFC9FED531B53EC112BFCF791FBFCF757
:103BD00040FD81B24248B94281824CD0221D9742B9
:103BE00002D2241FA74246DC0A22B1FBF2F302FBF9
:103BF0001312D2BB6439632901D8A0F814B0818AAA
:103C0000C839632901D8C8218182818AA1F59671BA
:103C1000632902D84FF496718182818AA1F5C87117
:103C2000632902D84FF4C8718182818AA1F5FA71A3
:103C3000632902D84FF4FA718182818AA1F5167145
:103C4000632902D84FF416718182818AA1F52F7100
:103C5000632902D84FF42F718182818AA1F54872BD
:103C6000632A03D84FF44871818204E04FF46172F3
:103C7000914200D382821A49888AA0F10A025A2A04
:103C800001D24FF00A08642801D34FF06408B8420B
:103C90000DD0B0FBF8F308FB130242B9CA78052A2D
:103CA00005D3164A0E7103238AF80030156009EB1C
:103CB000C90303EB091200EB82008861064A002069
:103CC00012F10C0242F82050401CC0B21E28F9D359
:103CD0000D7000F021B80000A0020020FC000020C0
:103CE0001C000020000000000000B03F6000002029
:103CF0005800002066666666662644401000002074
:103D00001F85EB51B83E444085EB51B81E850340FA
:103D1000000000000000594030BCBDE8C09F00001A
:103D2000114F0025114C4FF40078DFF84490012624
:103D300000F020F838780028607808D078B16570F5
:103D4000002241464846FDF751FCA67007E030B915
:103D50006670012241464846FDF748FCA5700A20DE
:103D6000FFF7C4FCE4E700001D0000206000002015
:103D7000000800482DE9F047FFF71CFB314FDFF842
:103D8000BC90DFF8BC8000253C1D48B92078012894
:103D900006D198F8000018B1FFF718FB012805D0EC
:103DA000FFF708FB0126012803D00BE025703D70CA
:103DB00010E0207830B998F8000018B1FFF706FB42
:103DC000012805D0FFF7E8FADFF87C8030B108E081
:103DD00026703E7089F8005000F03EFD60780128A2
:103DE00004D0FFF7D9FA012805D00AE065707D708C
:103DF00088F8005005E0607818B966707E7088F821
:103E00000060FFF7BFFADFF83C80A8F1010810B9A5
:103E1000E07801280CD0FFF7B5FA012806D1E07848
:103E2000002803D1E670FE7088F80050BDE8F087E6
:103E3000E570FD7088F80060F8E70000650000207C
:103E40006800002058000020630000202DE9F05F8A
:103E5000DFF8249101274FF4004A4FF0904B474E72
:103E6000DFF81C810025474CFFF7B0FA00287ED10F
:103E7000307800287BD198F80110002977D198F884
:103E80000000FFF7D7FC2571002280214846FDF78E
:103E9000ADFBA07958B14FF49670608184F806505C
:103EA000FFF794FA01282DD060890028F8D1FFF798
:103EB00069FA18B100F0F2FEE07198B1324800885A
:103EC000FCF7BAFB9FED311B53EC112BFCF7BFFA4B
:103ED000FCF7BFFB0346002211462E48FDF762F9AE
:103EE00065700BE0E7700DE0FFF770FA012809D06C
:103EF0003078C0B998F80100012814D0FFF766FAAD
:103F00000028F1D0012240214846FDF76FFB002236
:103F100051465846FDF76AFB1F4827716421008807
:103F20004843E0601AE0012240214846FDF75EFB6D
:103F30002771002251465846FDF758FB10E000BF9C
:103F4000FFF744FA10B1307898B902E0E5608BE7EA
:103F50000DE098F8010001280BD0E0680028EFD1AF
:103F6000012280214846FDF741FBA771E57000F072
:103F700015B8E560F4E70000000800481E000020C6
:103F800058000020640000202A00002052B81E853E
:103F9000EBD12840A80100202C00002030BCBDE857
:103FA000C09F0000044C207810B1FFF74FFFFAE7E4
:103FB000FFF76AFCF7E70000580000202DE9F04108
:103FC000134C0F46054666692068001D00F050FC42
:103FD000681C07D137B12168BDE8F0410D48091DC3
:103FE00000F096BC20683544B5424560216805D292
:103FF000A068BDE8F041091D00F072BC6068091DB1
:1040000000F06EFC206B854200D22563BDE8F08194
:1040100084000020B00700202DE9F041054600F0A3
:1040200083FC2D4C2069401C206120682B4F10B16F
:10403000E06930B32BE025602069012827D10026F4
:1040400006EB860007EB800000F03CFC761C382E67
:10405000F6D3234800F036FC2148143000F032FC3F
:104060001F48283000F02EFC1D483C3000F02AFC90
:104070001B48503000F026FC194860601430A060E6
:1040800005E02068E96AC06A884200D82560E06AD5
:10409000401CE0626864E86AA169884200D9A061B6
:1040A00000EB800007EB8000291D00F031FC00F0E0
:1040B0005BFCE06900280CD02068E96AC06A88428D
:1040C00007D208494FF080500860BFF34F8FBFF30D
:1040D0006F8FBDE8F0810000840000200003002005
:1040E0006007002004ED00E038B500F01DFC104C26
:1040F000A068C8B90F4800F0E5FB0E48143000F086
:10410000E1FB0C482060143060600A4B002028332B
:10411000009003F1500210210A2000F0FDFEA06083
:1041200010B105A100F09EFCBDE8384000F01CBCB9
:10413000C0000020C4070020546D72510000000030
:1041400030B4026C0B46002A0BD0C1681144C16028
:104150008468A14201D30168C16030BC1846FCF7F5
:10416000A3B830BC70472DE9F041856B1746044673
:104170000026026C82B1C7B1E068FCF795F8E168EF
:10418000206C091AE1602268914202D2A168081AE3
:10419000E060022F16D017E02068A8B9A06801F0EF
:1041A000EBF906460020A0600EE06068FCF77CF8A2
:1041B000216C606808446060A168884204D320686C
:1041C000606001E005B16D1E6D1CA5633046BDE861
:1041D000F08110B5044690F8590058B101280CD070
:1041E00002280FD0502080F31188BFF34F8FBFF308
:1041F0006F8FFEE7206B00F0CBFB2046BDE8104040
:1042000000F0C6BB10BD00000F4841F288314207E4
:1042100005D0C01D0C4A20F00700821A891A0B4AEB
:1042200000230144C2E900030839103A21F00701D4
:1042300011604B600B600B1AC0E9001393604FF0E4
:1042400000405360D0607047940F0020E8000020C9
:10425000144E154CA6F29C474FF08058DFF84C9056
:1042600012E000BF00F060FBF068C568281D00F098
:10427000FFFA2069401E2061E068401EE06000F007
:1042800073FB2846FFF7A5FFE0680028EAD13868ED
:104290000128F9D9C9F80080BFF34F8FBFF36F8FA2
:1042A000F2E700009C0700208400002004ED00E0FD
:1042B00070B51D46049C51B1C4F80020C4E90F013B
:1042C0000121204600F05CFE84F84C5070BD246053
:1042D000F4E700002DE9F05F8846DDE90B94154610
:1042E000834691009A460A9EA522206BFBF7EEFFBB
:1042F0006FF00301206B01EB8501084420F00707F4
:10430000780707D0502080F31188BFF34F8FBFF399
:104310006F8FFEE70025B8F1000F0FD05FF00000AF
:10432000221818F8001082F8341018F8001011B193
:10433000401C1028F4D384F8435001E084F8345032
:10434000382E00D33726E662C4E91365201D00F03D
:10435000C4FA04F1180000F0C0FA2461C6F1380074
:104360006462A061656584F85850524659463846E3
:1043700000F05CFA2060B9F1000F01D0C9F80040EC
:1043800000F000B830BCBDE8C09F000030B5114956
:1043900000E011460A688242FBD34B685C188442F5
:1043A00003D1406818444860084643681C1894428A
:1043B00009D1084C103C2468A24209D052681A4422
:1043C00042600A6812680260814200D0086030BD15
:1043D0000460F9E7E800002070B5002441600B4D4F
:1043E0000061914206D8D11A8269914206D2011D1C
:1043F000686807E09A4203D2994201D3012403E09E
:10440000011D286800F06CFA204670BDC000002035
:1044100010B5044600F088FAA06B28B15FF00004E4
:1044200000F0A2FA204610BD0124F9E730B589B0AA
:104430003C4D6EE00498002806DADDE90601059A95
:1044400090470498002864DB069C606910B1201D29
:1044500000F00EFA03A800F0D7F8024604980A28E4
:1044600057D2DFE800F00505052D334A05052D3349
:1044700094F8280040F0010084F828000599A0690C
:10448000059B01442046FFF7A7FF68B3216A204639
:10449000884794F8280040073BD5002000900598F5
:1044A000A169002342181946204601F06FF9D8B9D6
:1044B000502080F31188BFF34F8FBFF36F8FFEE75B
:1044C00014F8280F20F00100207022E094F8280052
:1044D00040F0010084F828000598A06128B18118F7
:1044E00013462046FFF778FF13E0502080F3118831
:1044F000BFF34F8FBFF36F8FFEE794F8280081075B
:1045000003D4204600F044FA03E020F0010084F8D0
:104510002800002204A9A86800F084FE002889D1A0
:1045200009B030BDC00000202DE9FC410F46054612
:1045300000F07AFB01A800F067F80446019818B172
:1045400001F092F8BDE8FC81254EAFB170680068BB
:10455000D0B30027291B3A46B06800F097FA01F063
:1045600083F80028EED11F494FF080500860BFF358
:104570004F8FBFF36F8FE5E7A542EBD801F074F8DA
:1045800030682746C068C468201D00F071F994F8AF
:104590002800410719D5A0692B4641193A46204603
:1045A000FFF71AFFA8B100200346014600902A46F3
:1045B000204601F0EBF860B9502080F31188BFF37A
:1045C0004F8FBFF36F8FFEE707E020F0010084F804
:1045D0002800216A20468847B4E70127BAE700008F
:1045E000C000002004ED00E006484168096829B1D8
:1045F0004168C968C9684968016370474FF0FF3175
:10460000FAE700008400002070B5054600F04AFF7C
:10461000064E04463069844203D200F009F80120B6
:1046200000E0002028602046346170BDC0000020FA
:10463000F8B5194D20E0C068C4680668201D00F078
:1046400017F9216A2046884794F82800400713D5B7
:10465000A0693044B04206D924616060211D2868F9
:1046600000F03EF908E00020034601460090324683
:10467000204601F08BF838B1286801680029DAD1AA
:104680006968C5E90010F8BD502080F31188BFF3B8
:104690004F8FBFF36F8FFEE7C000002008484068CF
:1046A000401C4FF0500080F3118804D0BFF34F8FAF
:1046B000BFF36F8FFEE7BFF34F8FBFF36F8FFEE740
:1046C000F0000020074C2068016841B1C06800215B
:1046D000D0F80000FFF728FFFFF7A8FEF3E701215D
:1046E0000020F7E7C00000202DE9F041044600F06B
:1046F0001BF994F9455004F1240609E0606A48B1B9
:10470000304600F079FF08B100F010FA6D1E6DB26E
:10471000002DF3DC4FF0FF3684F8456000F024F9FB
:1047200000F002F994F9445004F1100709E02069FF
:1047300048B1384600F060FF08B100F0F7F96D1E8F
:104740006DB2002DF3DC84F84460BDE8F04100F068
:104750000BB900002DE9F0410546002700F064FA8E
:10476000314E306808B9FFF74FFDF06805424BD174
:10477000C5B3083568070ED005F00700C0F1080082
:104780000544680707D0502080F31188BFF34F8F8E
:10479000BFF36F8FFEE72DB37068854234D822488F
:1047A000103001460C6801E020460C466168A942C1
:1047B00002D221680029F7D131688C4224D00768E1
:1047C0002168016060680837411B10290FD9601902
:1047D000420708D0502080F31188BFF34F8FBFF3FA
:1047E0006F8FFEE710E041606560FFF7CFFD616805
:1047F0007068401A7060B268904200D2B060F06891
:1048000001430020C4E9000100F02EFF780707D023
:10481000502080F31188BFF34F8FBFF36F8FFEE7F7
:104820003846BDE8F0810000D800002010B5031F15
:104830004FF080741C601B1F21F001011960191FCB
:10484000044B0B6014390A60091F6FF002024438F0
:104850000A6010BD9D460008012080F310880349BE
:1048600001480860FEE700000100FA050CED00E0D9
:10487000D0E9013201699A60D0E901235A604A689F
:10488000824201D182684A60002202610868401EAB
:104890000860086870470000034B036003F15C0088
:1048A0000860802010607047DC080020044B036023
:1048B00003F15C0008604FF48070106070470000E6
:1048C000380B002000F108014FF0FF32C0E901125F
:1048D000C1600161002101607047002101617047E2
:1048E00030B50B685A1C02D000F1080202E00269E0
:1048F00004E02246546825689D42FAD953684B600B
:1049000099608A60516008610168491C016030BD8E
:1049100042684A6093688B6093685960916008614F
:104920000168491C01607047502080F31188BFF373
:104930004F8FBFF36F8F0A494868401C48600128B9
:104940000CD10848006810F0FF0F07D0502080F30A
:104950001188BFF34F8FBFF36F8FFEE770470000E2
:10496000F000002004ED00E00849486828B1401E2E
:10497000486001D180F311887047502080F311887E
:10498000BFF34F8FBFF36F8FFEE70000F0000020F2
:1049900070B5002827D0144DA0F108046168E868BC
:1049A000014207D1502080F31188BFF34F8FBFF32E
:1049B0006F8FFEE722683AB1502080F31188BFF371
:1049C0004F8FBFF36F8FFEE78143616000F02CF9DA
:1049D00060686968084468602046FFF7D7FCBDE856
:1049E000704000F041BE70BDD80000204FF0E020C4
:1049F000002101618161054941F288320968B1FBFA
:104A0000F2F1491E416107210161704780000020D9
:104A100010B5FBF723FC114910280ED300F1E0205C
:104A200090F8F0030A78904207D2502080F3118862
:104A3000BFF34F8FBFF36F8FFEE7094800688968A7
:104A400000F4E060884207D9502080F31188BFF35A
:104A50004F8FBFF36F8FFEE710BD0000F000002006
:104A60000CED00E010B5084B002200BF53F83240B7
:104A70001CB1521C082AF9D310BD43F8321003EBC5
:104A8000C201486010BD0000C002002070B515468C
:104A90000E460446FFF748FF94F944100020491CD5
:104AA00001D184F8440094F94510491C01D184F8DF
:104AB0004500FFF759FFA06B28B92A46314604F19B
:104AC000240000F051F82046BDE87040FFF70CBE0E
:104AD00010B5020014D00F48806B38B1502080F31D
:104AE0001188BFF34F8FBFF36F8FFEE700F09CF884
:104AF00000211046FFF762FA00F0B6FD002807D14A
:104B000005494FF080500860BFF34F8FBFF36F8FA0
:104B100010BD00008400002004ED00E002498A6A14
:104B2000026049694160704784000020014901200A
:104B3000486270478400002010B50C4650B1094906
:104B400009681831FFF7CCFE2046BDE8104001216E
:104B5000FFF734BA502080F31188BFF34F8FBFF3B3
:104B60006F8FFEE78400002070B514460D4668B1D3
:104B70000A4909681831FFF7CBFE0CB14FF0FF3539
:104B800021462846BDE87040FFF718BA502080F350
:104B90001188BFF34F8FBFF36F8FFEE784000020B3
:104BA00030B587B00024039405AA04A903A804948F
:104BB000FFF772FEDDE903010094CDE90110002347
:104BC00015A11748059A00F033FC164D00286863BC
:104BD0001FD000F0ABFD012809D0401C19D1502096
:104BE00080F31188BFF34F8FBFF36F8FFEE7502024
:104BF00080F31188BFF34F8FBFF36F8F4FF0FF30FB
:104C000028630120E8616C6107B0BDE8304000F026
:104C1000F3B807B030BD000049444C450000000027
:104C200051420008840000200248816B491C8163C6
:104C30007047000084000020164810B5816B11B148
:104C40000121416210BD002141628169124A01E0E7
:104C5000B9B1491E01EB810352F82330002BF7D084
:104C600001EB810302EB830202F1080453685B68E5
:104C70005360A34201D15B685360DA6802608161CE
:104C800010BD502080F31188BFF34F8FBFF36F8F9B
:104C9000FEE7000084000020000300202DE9F05F03
:104CA00000222DED028B4FF41B7311464A48FCF78E
:104CB00079FA4FF4004B4FF090470122594638469D
:104CC000FCF794FC4FF4805A012251463846FCF719
:104CD0008DFCDFF80891002240214846FCF786FC55
:104CE0003F4C01260025667025812570DFF8F48091
:104CF0009FED3D8B3DE02078B0B3257001228021EF
:104D00004846FCF773FC002251463846FCF76EFC1F
:104D1000012240214846FCF769FC002259463846EA
:104D2000FCF764FCA670B8F80000FBF785FC53ECB8
:104D3000182BFBF78CFBFBF78CFC0346002211467B
:104D40002548FCF72FFA00BFFEF740FB0A20FCF7CE
:104D500057FBFEF73BFB0128F6D1A57026714FF4F7
:104D60007A70FCF74DFB35E0FFE7FEF72FFB0128DB
:104D700010D0FEF707FB0128BDD00022514638466F
:104D8000FCF734FC9620FCF73BFB0120BDEC028BCA
:104D900000F02EB82671012240214846FCF726FC7F
:104DA000B8F80000FBF748FC53EC182BFBF74FFB5F
:104DB000FBF74FFC0346002211460748FCF7F2F9C7
:104DC000002251463846FCF711FC0022594638466D
:104DD000FCF70CFC0020D9E7A801002000080048DF
:104DE000640000202A00002052B81E85EBD1284024
:104DF00030BCBDE8C09F00001CB537480168374A89
:104E0000914207D1502080F31188BFF34F8FBFF339
:104E10006F8FFEE700683149491E884207D1502054
:104E200080F31188BFF34F8FBFF36F8FFEE72C49DC
:104E300008780190FF20087008788DF800009DF830
:104E400000009DF8002000F0F000904207D05020B4
:104E500080F31188BFF34F8FBFF36F8FFEE79DF88C
:104E60000000204B00F0500018700720986005E00B
:104E70009DF8002052008DF80020401E9DF8002073
:104E80001206F5D49860032807D0502080F31188CB
:104E9000BFF34F8FBFF36F8FFEE74FF44070986002
:104EA000019808700C482030016841F470010160DD
:104EB000016841F070410160FFF798FD00205860E3
:104EC000FBF794F90848016841F040410160FBF7A5
:104ED00079F900201CBD000000ED00E071C20F4117
:104EE00000E400E0F000002034EF00E010B55020B6
:104EF00080F31188BFF34F8FBFF36F8F00F0D8FAA4
:104F000018B104494FF080500860002080F31188E8
:104F100010BD000004ED00E038B5049D18B153B198
:104F2000CAB181B120E0502080F31188BFF34F8FC8
:104F3000BFF36F8FFEE7502080F31188BFF34F8FD0
:104F4000BFF36F8FFEE7502080F31188BFF34F8FC0
:104F5000BFF36F8FFEE739B1502080F31188BFF3A4
:104F60004F8FBFF36F8FFEE750241C46012384F858
:104F700046302B460094FFF79BF9204638BD0000D1
:104F800070B50D46040025D0FFF7CEFCD4E90F2004
:104F9000216802FB0011A1600021A163216861600A
:104FA0000A46D4E90F01401E00FB0121E1602146C1
:104FB0004FF0FF3001F8440F487004F110008DB13C
:104FC000FFF780FC04F12400FFF77CFCFFF7CCFC2A
:104FD000012070BD502080F31188BFF34F8FBFF3C5
:104FE0006F8FFEE721690029F0D000F005FB002853
:104FF000ECD004494FF080500860BFF34F8FBFF3EF
:105000006F8FE3E704ED00E02DE9FF4782B01D4616
:105010008A464FF00008040003D0BAF1000F08D010
:1050200011E0502080F31188BFF34F8FBFF36F8FD3
:10503000FEE7206C38B1502080F31188BFF34F8F0A
:10504000BFF36F8FFEE7022D0AD1E06B012807D076
:10505000502080F31188BFF34F8FBFF36F8FFEE7AF
:1050600000F012FA3F4F4FF000094FF0805648B958
:10507000049838B1502080F31188BFF34F8FBFF3ED
:105080006F8FFEE7FFF750FCA06BE16B884207D300
:10509000022D05D00498D0B1B8F1000F1AD01EE04F
:1050A0002A4651462046FFF75EF8616A19B104F1BD
:1050B000240000F0A1FA20B13E60BFF34F8FBFF390
:1050C0006F8FFFF751FC012006B0BDE8F087FFF7B6
:1050D0004BFC22E06846FFF721FD4FF00108FFF787
:1050E00043FCFFF7A1FDFFF71FFC94F94400401CAF
:1050F00001D184F8449094F94500401C01D184F812
:105100004590FFF731FC04A9684600F027F930B15B
:105110002046FFF7E9FA00F0A7FA0020D4E7FFF7EE
:1051200003FCA06BE16B884213D1FFF71DFC04F177
:1051300010000499FFF700FD2046FFF7D5FA00F0B4
:1051400093FA00289ED13E60BFF34F8FBFF36F8F5D
:1051500098E7FFF709FC2046FFF7C6FA00F084FA4B
:1051600090E7000004ED00E02DE9F0471F4690466F
:105170008946040003D0B9F1000F08D011E0502097
:1051800080F31188BFF34F8FBFF36F8FFEE7206C62
:1051900038B1502080F31188BFF34F8FBFF36F8F6A
:1051A000FEE7022F0AD1E06B012807D0502080F3E0
:1051B0001188BFF34F8FBFF36F8FFEE7FFF728FC17
:1051C0005020EFF3118680F31188BFF34F8FBFF3A8
:1051D0006F8FA06BE16B884206D3022F04D00020B2
:1051E00086F31188BDE8F08794F945503A46494660
:1051F0002046FEF7B8FF681C04D06D1C84F84550AB
:105200000120EDE7606A0028FAD004F1240000F0E4
:10521000F3F90028F4D0B8F1000FF1D00121C8F85B
:105220000010EDE72DE9F747002683B08A46040019
:1052300003D0BAF1000F08D011E0502080F311889C
:10524000BFF34F8FBFF36F8FFEE7206C38B1502054
:1052500080F31188BFF34F8FBFF36F8FFEE700F02D
:1052600013F9DFF8F4804FF000094FF0805748B988
:10527000059838B1502080F31188BFF34F8FBFF3EA
:105280006F8FFEE7FFF750FBA56BC5B15146204677
:10529000FEF756FF6D1EA563206950B104F11000A2
:1052A00000F0AAF928B1C8F80070BFF34F8FBFF320
:1052B0006F8FFFF759FB012006B0BDE8F087059816
:1052C00008B11EB106E0FFF74FFB27E06846FFF785
:1052D00025FC0126FFF748FBFFF7A6FCFFF724FBA0
:1052E00094F94400401C01D184F8449094F945009D
:1052F000401C01D184F84590FFF736FB05A96846AC
:1053000000F02CF8002820460AD0FFF7EDF900F055
:10531000ABF92046FFF77CF80028B3D00020CBE79C
:10532000FFF776F890B104F124000599FFF704FC2B
:105330002046FFF7D9F900F097F90028A2D1C8F864
:105340000070BFF34F8FBFF36F8F9BE72046FFF7CF
:10535000CBF900F089F995E704ED00E02DE9F04183
:105360000C46050011D0C4B1FFF7DEFA174B5A699D
:105370006E682068911B471C17D02F689B6A9F425C
:1053800019D0964217D8012410E0502080F31188DC
:10539000BFF34F8FBFF36F8FFEE7502080F311886C
:1053A000BFF34F8FBFF36F8FFEE70024FFF7DCFAE8
:1053B0002046BDE8F081884205D9401A2060284681
:1053C000FFF7ACFBF1E700202060DCE78400002061
:1053D0002DE9FF5F8346DDE90E87994616468A462A
:1053E0009000FFF7B7F905001CD05C20FFF7B2F979
:1053F000040014D00020256384F85900CDE9024050
:10540000CDE900874B46324651465846FEF762FFCB
:105410002046FEF701FE012004B000F006B8284641
:10542000FFF7B6FA4FF0FF30F6E730BCBDE8C09F9B
:10543000F0B585B0DDE90B640A9DA6B1DCB15C274F
:1054400000972663022684F85960002604AFCDE950
:105450000246CDE90057FEF73DFF2046FEF7DCFD92
:10546000049805B0F0BD502080F31188BFF34F8F32
:10547000BFF36F8FFEE7502080F31188BFF34F8F8B
:10548000BFF36F8FFEE700000548C16919B1806B5B
:1054900018B10020704701207047022070470000BB
:1054A000840000200148406970470000840000200B
:1054B0002DE9F0412E4C0027A06B40B1206A401C22
:1054C0002062606A00B101273846BDE8F081666954
:1054D000761C666113D16068006838B1502080F393
:1054E0001188BFF34F8FBFF36F8FFEE76068A1682D
:1054F0006160A060A06A401CA062FFF775F8206B95
:10550000DFF87080864209D36068006880B1606807
:10551000C068C568686886420DD220632068C06A8A
:1055200000EB800158F821000128CAD90127C8E7FB
:105530004FF0FF30F1E7281DFFF79AF9A86A18B17C
:1055400005F11800FFF794F9E86AA169884200D9CB
:10555000A06100EB800108EB8100291DFFF7D8F95D
:10556000E86A2168C96A8842CED30127CCE70000E7
:10557000840000200003002070B504004FF00001FB
:1055800033D01B4D2868844207D0502080F3118807
:10559000BFF34F8FBFF36F8FFEE7206D38B1401E12
:1055A0002065E36CE26A9A421FD040B11DE05020B2
:1055B00080F31188BFF34F8FBFF36F8FFEE7201D7D
:1055C000FFF756F9E06CE062C0F13800A061E06AD4
:1055D000A969884200D9A861064900EB800001EB67
:1055E0008000211DFFF794F90121084670BD0000DD
:1055F000840000200003002070B5C068C46854B166
:1056000004F118000646FFF733F9144DA86B50B1AA
:105610003146134815E0502080F31188BFF34F8FB7
:10562000BFF36F8FFEE7201DFFF722F9E06AA9693B
:10563000884200D9A8610B4900EB800001EB800093
:10564000211DFFF765F9E06A2968C96A884202D915
:105650000120686270BD002070BD00008400002041
:1056600088070020000300202DE9F0472C4D00247E
:105670002746A86B38B1FFF757F9A86B401EA863FF
:10568000A86B40B146E0502080F31188BFF34F8FE4
:10569000BFF36F8FFEE72969224E0120D1B3A6F533
:1056A000916980463068E0B1F068C46804F1180080
:1056B000FFF7DEF8201DFFF7DBF8E06AA9698842F2
:1056C00000D9A86100EB800109EB8100211DFFF7E3
:1056D0001FF9E06A2968C96A8842E3D3C5F82480C3
:1056E000E0E70CB1FEF780FF2C6A4CB14FEA0806E8
:1056F000FFF7DEFE00B16E62641EF9D10020286261
:10570000686A38B10849012738070860BFF34F8F2E
:10571000BFF36F8FFFF728F93846BDE8F087000028
:10572000840000208807002004ED00E010B586B05A
:10573000FEF7DAFC114CA068B8B100200390049089
:1057400005AA04A903A8FFF7B1F8DDE903210220A7
:105750008DE8070000230AA10B48059AFFF768FEB1
:10576000E06010B106B0012010BD502080F3118818
:10577000BFF34F8FBFF36F8FFEE70000C000002024
:10578000546D722053766300C54600082DE9FF4131
:105790001E46134602000A9D4FF0000016D0144C1E
:1057A000A768002F0FD0CDE900130292062917DA5F
:1057B000FFF76AFE02284FF000030FD0002269466F
:1057C000A068FFF721FC04B0BDE8F081502080F311
:1057D0001188BFF34F8FBFF36F8FFEE72A46EEE7C6
:1057E0000023324669463846FFF7BEFCEBE700006F
:1057F000C000002058580008000000000000000011
:1058000000000000000000008001000018000000FF
:105810000000000000000000000000000000000088
:105820000102030406070809A0860100400D0300D9
:10583000801A060000350C0040420F0080841E00D4
:1058400000093D0000127A000024F40000366E01C9
:105850000048E801006CDC0264656661756C745494
:1058600061736B008458000800000020FC000000F9
:105870006633000880590008FC0000202426000040
:105880007633000800000000000000000000000067
:105890000000000000000000000000000000000008
:1058A00000000000000000000000000000000000F8
:1058B00000000000000000000000000000000000E8
:1058C000003F065B4F666D7D077F6FBF86DBCFE6CF
:1058D000EDFD87FFEF00040140794000000000006B
:1058E00000000000000000000000000001000000B7
:1058F0000000000000000000100000000100000097
:105900000000000000093D00000000000000000051
:105910000000000000000000000000000000000087
:105920000000000000000000000000000000000077
:105930000000000000000000000000000000000067
:105940000000000000000000000000000000000057
:105950000000000000000000000000000000000047
:105960000000000000000000000000000000000037
:105970000000000000000000AAAAAAAA000000007F
:040000050800018D61
:00000001FF
